:040000008BEF05F08D
:1000080000C015F0F2A40ED01E4A1F2A1F50220A63
:1000180002E1800E1E1804E11E6A1F6A010E226E9C
:10002800D59AF2949EA20DD0234A242A2450030A7A
:1000380002E1980E231804E1236A246A010E1B6E5C
:100048009E927EA00DD0254A262A2650070A02E154
:100058006C0E251804E1256A266A010E1C6E7E9036
:0600680015C000F01100BC
:10006E0089C06FFF6DB002D00000FCD76FCF00F0DB
:02007E0012006E
:0A008000000E9EBA010E006E120081
:10008A00FF0E00016D6FFF0E6E6FFF0E6F6FFF0E9A
:10009A00706FE20E696F000E6A6F000E6B6F000ED2
:1000AA006C6F800E576E000E586E000E596E000E61
:1000BA005A6EFF0E5B6EFF0E5C6E000E5D6E000EDA
:1000CA005E6EAC8A900EAB6E948E949C9EAA03D000
:0800DA00AECF00F0FBD71200CD
:1000E200AECF01F0ABA202D0AB98AB8801C000F05A
:0200F2001200FA
:0C00F40072B201D0FDD77FC073FF120074
:100100007FC06FFF6DB002D00000FCD76FCF00F052
:020110001200DB
:10011200F40E00016D6F000E6E6F7F0E6F6F000E9A
:10012200706F760E696F020E6A6F000E6B6F000EB3
:100132006C6F6C0E576E020E586E000E596E000EEA
:100142005A6EFF0E5B6EFF0E5C6E000E5D6E000E51
:100152005E6E728A900E716E958E959CA4AA03D0E3
:0801620074CF00F0FBD712007E
:10016A006C9A000E0001656F010E666F7F0E676F55
:10017A00000E686F6E0E616F000E626F890E636FFC
:10018A00000E646F9598959095826C6A400E6D6E1C
:04019A006C8A120059
:10019E0082928290829A8394080E0C6EC90E0D6E16
:1001AE000D2EFED70C2EFCD700000000220E0001F3
:1001BE00896F56DF85C089F053DF86C089F050DF26
:1001CE0087C089F04DDF88C089F04ADF8384140E22
:1001DE000C6E790E0D6E0D2EFED70C2EFCD7000078
:1001EE0000008394080E0C6EC90E0D6E0D2EFED7F8
:1001FE000C2EFCD700000000200E0001896F30DFAE
:10020E007FC089F02DDF80C089F02ADF81C089F0A0
:10021E0027DF82C089F024DF83C089F021DF84C00C
:10022E0089F01EDF8384080E0C6EC90E0D6E0D2E26
:10023E00FED70C2EFCD70000000081AA01D0FDD7FE
:10024E0082808282828A270E0C6EF50E0D6E0D2E26
:0E025E00FED70C2EFCD7828A8292828012007C
:0A026C00000EA4BA010E006E12008D
:1002760074CF01F071A202D07198718801C000F0AC
:02028600120064
:100288001850010A39E1186A3C50310A02E1010E9E
:100298001D6E3C50300AD8B41D6A3F50310A02E145
:1002A800819081943D50310A05E1226A1E6A1F6AD5
:1002B80081908194AA0E00017F6F18DF7E0E0001E5
:1002C8007F6F14DF00017F6B11DF1E0E3F240001DA
:1002D8007F6F0CDF1E0E3D2400017F6F07DF1E0EAF
:1002E8003C2400017F6F02DF1E0E00017F6FFEDEDF
:1002F8000A0E00017F6FFADE1D50010A26E1365012
:10030800B80A23E1366A81808184AA0E00017F6FD2
:10031800EDDE7E0E00017F6FE9DE00017F6BE6DE19
:100328001E0E00017F6FE2DE1E0E00017F6FDEDE13
:100338001E0E00017F6FDADEB80E00017F6FD6DE79
:0E0348000A0E00017F6FD2DE01D0366A12006D
:1003560094DE005254E0C2DE00C03AF00050540A67
:1003660003E1166A0A0E176E17500A0A12E13B0ECF
:10037600E16E000EE26E1650E126D8B0E22A3AC0CF
:10038600E6FF162A1650070A04E1166A176A010ED6
:100396001A6E3A50520A03E1166A140E176E175077
:1003A600140A12E13B0EE16E000EE26E1650E126D3
:1003B600D8B0E22A3AC0E6FF162A1650070A04E128
:1003C600166A176A010E186E3A50530A03E1166A46
:1003D6001E0E176E17501E0A12E13B0EE16E000E3E
:1003E600E26E1650E126D8B0E22A3AC0E6FF162A97
:1003F6001650070A04E1166A176A010E196E1200F2
:100406008280829A8292080E0C6EC90E0D6E0D2E97
:10041600FED70C2EFCD7000000008394100E0001BE
:10042600896F22DE5F6A800E5F18006E800E0A0AF0
:10043600005C05E260C07FF060DE5F2AF4D783844B
:10044600080E0C6EC90E0D6E0D2EFED70C2EFCD7A7
:0C0456000000000082928280828A120066
:100462008182080E0B6E9D0E0C6E050E0D6E0D2E0A
:10047200FED70C2EFCD70B2EFAD70000000081927B
:10048200080E0B6E9D0E0C6E050E0D6E0D2EFED718
:100492000C2EFCD70B2EFAD7000000008182080E2A
:1004A2000B6E9D0E0C6E050E0D6E0D2EFED70C2ED4
:1004B200FCD70B2EFAD7000000008192080E0B6EBB
:1004C2009D0E0C6E050E0D6E0D2EFED70C2EFCD75A
:1004D2000B2EFAD7000000008182EE0E00017F6F22
:1004E20008DE00017F6B05DE00017F6B02DE1E0E5F
:1004F20000017F6FFEDD1E0E00017F6FFADD1E0E12
:1005020000017F6FF6DD1E0E00017F6FF2DD0A0E25
:0805120000017F6FEEDD120015
:10051A000900F5CFE6FF0006FBE10106F9E112004A
:10052A0093929394939694949390958A9298949292
:10053A00949A9490959493889586938A0F01386B30
:10054A00396B3A6B3B6B3C6BF28EF28AF294D58C28
:10055A00D59AD596D584D582D580D66AD76AD58ECE
:10056A003F939D829E92BA8CBA8ABA88BA86BA9406
:10057A00BA82BA80FF0EBB6E3F977D807E90518D06
:10058A00518B51895187518551835181FF0E526F89
:10059A00E7DD020E0B6E860E0C6E990E0D6E0D2E99
:1005AA00FED70C2EFCD70B2EFAD7B886010EB06EEA
:1005BA00370EAF6EAC8464DD020E0B6E860E0C6EC7
:1005CA00990E0D6E0D2EFED70C2EFCD70B2EFAD7D8
:1005DA007086010E766E370E756E728495DD020E88
:1005EA000B6E860E0C6E990E0D6E0D2EFED70C2E0E
:1005FA00FCD70B2EFAD781908182818481968294CE
:10060A00100E0B6E390E0C6E0D0E0D6E0D2EFED7E2
:10061A000C2EFCD70B2EFAD7000000008192819491
:02062A001200BC
:10062C001A50010A2CE11A6A4C6A300E3C5C4D6E71
:10063C00300E3D5E0A0E3D02F3CF3DF0300E3E5CB7
:10064C00006E00C03EF000503D244E6E300E3F5CFC
:10065C004F6E506A516A4CC07FF04DC080F04EC056
:10066C0081F04FC082F00001836B846B3A0E856F72
:10067C00840E866FB30E876FE60E886F8ADD1200CC
:10068C00EFDD005254E0F1DD00C03AF00050540AA6
:10069C0003E1166A0A0E176E17500A0A12E13B0E96
:1006AC00E16E000EE26E1650E126D8B0E22A3AC096
:1006BC00E6FF162A1650070A04E1166A176A010E9D
:1006CC001A6E3A50520A03E1166A140E176E17503E
:1006DC00140A12E13B0EE16E000EE26E1650E1269A
:1006EC00D8B0E22A3AC0E6FF162A1650070A04E1EF
:1006FC00166A176A010E186E3A50530A03E1166A0D
:10070C001E0E176E17501E0A12E13B0EE16E000E04
:10071C00E26E1650E126D8B0E22A3AC0E6FF162A5D
:10072C001650070A04E1166A176A010E196E1200B8
:10073C0033507E0A06E1336A3550B50A02E1356A58
:10074C00212A3350AE0A1BE1336AAA0E00017F6FD7
:10075C00CBDC27C07FF0C8DC28C07FF0C5DC29C00B
:10076C007FF0C2DC2AC07FF0BFDC2BC07FF0BCDC8A
:10077C002CC07FF0B9DC0A0E00017F6FB5DC335062
:10078C00BF0A1BE1336AAA0E00017F6FADDC2DC0DE
:10079C007FF0AADC2EC07FF0A7DC2FC07FF0A4DC9A
:1007AC0030C07FF0A1DC31C07FF09EDC32C07FF026
:0C07BC009BDC0A0E00017F6F97DC12002E
:1007C80033507E0A14E133C034F054C035F01E0EA5
:1007D8005224006E00C036F000C020F01E0E5324D4
:1007E800376E1E0E5524386E1E0E5624396E335041
:1007F800BF0A10E133C02DF054C02EF01E0E522453
:100808002F6E1E0E5324306E1E0E5524316E1E0E92
:100818005624326E3350AE0A10E133C027F054C06C
:1008280028F01E0E5224296E1E0E53242A6E1E0E08
:0C08380055242B6E1E0E56242C6E120050
:100844001950010A34E1446A300E3C5C456E300EA6
:100854003D5C466E476A486A496A44C07FF045C0B9
:1008640080F046C081F00001826B836B846B980E2C
:10087400856FD50E866F1A0E876FFA0E886F8DDC22
:100884003CC04AF03EC042F03FC043F0300E405EF0
:1008940041504E0A02E1416A06D00A0E4002F3CFEB
:1008A40040F0300E415E415040244B6E196A4A506C
:1008B400320A1CE14250310A19E12050B80A16E10B
:1008C400206A00017F6B010E806F816B826B836BEA
:1008D400846B980E856FD50E866F1A0E876FFA0E8D
:1008E400886F5BDCFF0EBB6EBA8401D0206A1B509C
:1008F400010A13E11B6ABA9400017F6B020E806F38
:10090400816B826B836B846B980E856FD50E866FBB
:100914001A0E876FFA0E886F40DC4350310A31E1BA
:100924001C50010A2EE11E0E325C016E01C032F031
:100934004B50015C11E200017F6B010E806F816BF3
:10094400826B836B846B980E856FD50E866F1A0E3F
:10095400876FFA0E886F21DC32504B5C11E2000184
:100964007F6B020E806F816B826B836B846B980E3E
:10097400856FD50E866F1A0E876FFA0E886F0DDCA1
:040984001C6A1200D7
:100988008280829A8292080E0C6EC90E0D6E0D2E10
:10099800FED70C2EFCD7000000007B0E0001756FFF
:1009A8002C0E766F440E776F060E786F060E796FF1
:1009B80071C07AF072C07BF073C07CF074C07DF0B7
:1009C800DB0E7E6F8394896B37EC00F05F6A800ED4
:1009D8005F18006E800E0A0A005C10E2750EE96E60
:1009E800000EEA6E5F50E926000E5FBEFF0EEA2297
:1009F800EECF89F037EC00F05F2AE9D78384080E40
:100A08000C6EC90E0D6E0D2EFED70C2EFCD70000F5
:0A0A1800000082928280828A1200A0
:100A220082928280828A83A641D081A83FD0839419
:100A3200080E0C6EC90E0D6E0D2EFED70C2EFCD7B5
:100A420000000000240E0001896F37EC00F05FC047
:100A52007FF080EC00F000C033F05FC07FF080ECEC
:100A620000F000C054F05FC07FF080EC00F000C0E6
:100A720052F05FC07FF080EC00F000C053F05FC026
:100A82007FF080EC00F000C055F05FC07FF080EC9A
:100A920000F000C056F0080E0C6EC90E0D6E0D2E41
:0E0AA200FED70C2EFCD700000000838412004B
:100AB0002250010A2FE1226A2150000A2AE1818096
:100AC0008184AA0E00017F6F7AEC00F07E0E000197
:100AD0007F6F7AEC00F000017F6B7AEC00F01E0E65
:100AE00000017F6F7AEC00F01E0E00017F6F7AEC40
:100AF00000F01E0E00017F6F7AEC00F0D30E0001B3
:100B00007F6F7AEC00F00A0E00017F6F7AEC00F044
:060B100001D0216A120071
:100B1600C0EC05F007DD74DC920E0001716FC50EA6
:100B2600726FA60E736FB00E746F2BDF040E0A6E13
:100B3600920E0B6E240E0C6ED70E0D6E0D2EFED77A
:100B46000C2EFCD70B2EFAD70A2EF8D787DC66DFD9
:100B560038DEF1DDAADFABEC01F095DD64DD44ECB7
:080B660001F06DDEF4D7FFD7AA
:100B800010EE16F0110E006E010E016E6E0EF66E76
:0E0B90000B0EF76E000EF86E8DEC02F01200E8
:010B6E000086
:010B6F000085
:010B70000084
:010B71000083
:010B72000082
:010B73000081
:010B74000080
:010B7500007F
:020B760000007D
:010B7800007C
:010B7900007B
:010B7A00007A
:020B7B00000078
:020B7D00000076
:020000040030CA
:0D000100231F3CFF3F81FF0FC00FE00F40A9
:00000001FF
