:040000008831C82F4C
:1000080070082000A1008A0183012700961E11288C
:1000180001302000CA00270096122000911C2428D5
:10002800C80A0319C90A4908113A031D1D28943042
:100038004806031D2328C801C9010130C1009110D9
:10004800931C3128D70A5708B43A031D2F28D70123
:100058000C102800171120009310931D4328CB0A79
:100068000319CC0A4C08033A031D3C2884304B067C
:10007800031D4228CB01CC010130C0009311270099
:10008800161C532820008E1C5128D80A5808063AF6
:10009800031D5128D8010130AE002700161020009A
:0600A8002108F000090030
:0E00AE00F201F101F001F801F3010030080049
:1000BC007B15FB1F68280130F300F201F101F00100
:0800CC00FA0DF20CFF300800F0
:0800D400FA1FF21300300800CE
:1000DC00FB14FB1F7828FF30F300F200F100F00056
:0800EC00FA0DF20CFF300800D0
:1000F400A0017208031D8F287108F2007008F10036
:10010400F001A0157208031D8F287108F200F10197
:10011400A0112016720803199D282008F302031D5C
:10012400031CA1280310F21BA528F00DF10DF20DFC
:10013400F30B9528A1280130FC005720A828023091
:0E014400FC005E20A8280430FC006A200800A1
:100152007C18DF28FC18B0287C19FE28A928A001E9
:100162007208031DD0287108F2007008F1007808A7
:10017200F000F801A0157208031DD0287108F200E2
:100182007008F100F001A01120167208031DD0289A
:100192007108F200F101A01572080319F228200873
:1001A200F302031D031CF6280310F21BDF28F80DCF
:1001B200F00DF10DF20DF30BD628F6287B1B701C07
:1001C200FA28F81FFA28F00A0319F10A0319F20AA9
:1001D200031DFA28F20CF10CF00CF30A0319FE28A5
:1001E200FA280130FC00572001290230FC005E2071
:1001F20001290430FC006A2001290830FC006E202D
:0402020000000800F0
:0402060000000800EC
:10020A000830FC002330FD00FD0B0929FC0B0929ED
:02021A000800DA
:0C021C001030FD00FD0B10290000080050
:06022800FB15FF30080089
:10022E002100E11B1D2920008C101F2920008C1499
:10023E002100611B252920000C11272920000C15F7
:10024E002100E11A2D2920008C112F2920008C1558
:10025E002100611A352920000C12372920000C16B6
:10026E0021002F183D29200010143F2920001010C6
:10027E008C1603218C122100E119482920008C10C4
:10028E004A2920008C1421006119502920000C11DC
:10029E00522920000C152100E118582920008C113C
:1002AE005A2920008C1521006118602920000C129B
:1002BE00622920000C1621002F1868292000101426
:1002CE006A29200010108C1603218C1221002F1C7D
:0A02DE007229052173290E21080082
:1002E800200072087606A000F801F9017308770269
:1002F800031C96297708FD007308F7007D08F300B2
:100308007608FD007208F6007D08F2007508FD0009
:100318007108F5007D08F1007408FD007008F4000C
:100328007D08F000770803190F2A7208FA00F217FF
:10033800F61777087302F7000319C92908307702FE
:10034800031CBF29F7007408F9007508F400760843
:10035800F500F60108307702031CBF29F70074087E
:10036800F9007508F400F50108307702031CBF296D
:100378007A08F2000F2A77080319C9290310F60C26
:10038800F50CF40CF90CF70BC229A01FD629F909B2
:10039800F409F509F609F90A0319F40A0319F50A23
:1003A8000319F60A7908F80774080318740FF00798
:1003B80075080318750FF10776080318760FF2070A
:1003C800A01BEF29031CFF29F20CF10CF00CF80C10
:1003D800F30FFF290B2A0318032AF809F009F1097A
:1003E800F209F80A0319F00A0319F10A0319F20AC3
:1003F8008030FA06072A0130FC00A920112A0230B1
:10040800FC00A920112A0430FC007A20112A0830A7
:0E041800FC006E20112A0030FC0000000800DD
:100426007B14FB1F1E2AF201FA1FFF30F200F100B7
:0A043600F000FA0DF20CFF30080090
:10044000312A80302100DD00432AC030DD00432AFC
:100450009430DD00432AD430DD00432A8030DD00B3
:10046000432A21005D08013A0319212A5D08023A56
:100470000319252A5D08033A0319282A5D08043A5E
:1004800003192B2A2E2A5E03F0005D08F00770087E
:10049000DD002F147008E100172121002F105F08E4
:0A04A000E100172121002F140800CD
:1004AA002000F8010830FC00700DF80D7408F802FD
:1004BA000318612AF8070310F00DFC0B592A0800EB
:1004CA002000FB017308031D77080319BB2A720871
:1004DA007606FA007708F3077E30031C782AF302BF
:1004EA000318BE2A7B2AF302031CC12A7208F800E9
:1004FA007108FC007008FD00F817F6170310F201E6
:10050A00F101F0011830A0007D1C952A7408F0074B
:10051A0075080318750FF10776080318760FF207A6
:10052A00F20CF10CF00CF80CFC0CFD0C0310A00BF7
:10053A00892AF21BA52AF80DF00DF10DF20DF3032D
:10054A007B1B701CB72AF81FB72AF00A0319F10A95
:10055A000319F20A031DB72AF20CF10CF00CF30A84
:10056A000319BE2AFA1FF2130030C32A013057209A
:10057A00C32A02306E20C32A04305E20000008001D
:10058A002000FA017308031D7A147708031DFA1470
:10059A007A080319102B033A0319DB2A7A18D82A86
:1005AA00F61F0E2B0C2BF21F0C2B0E2B7208803908
:1005BA00FA00F21376088039F6137A060319E92A43
:1005CA007A0803190C2B0E2B770873020319F02AE9
:1005DA00031C042B082B760872020319F72A031C42
:1005EA00042B082B750871020319FE2A031C042B1D
:1005FA00082B740870020319102B0318082BFA0829
:10060A0003190E2B0C2BFA0803190C2B0E2B0314AF
:0E061A00080003100800031403150800080070
:1006280021005D082400910014181B2B182B1108B9
:04063800F0000800C6
:10063C007408003A031D372B7508003A031D372B3D
:10064C007608003A031D372B7708003A031D372B29
:10065C00FF30F000FF30F1007F30F200FF30F3008C
:10066C00D12B200077080319C52B73080319C82B4D
:10067C00720876068039FA00F217F617A001720894
:10068C00F8007108FC007008FD007408FD02750884
:10069C00031C750FFC027608031C760FF802F80198
:1006AC00FC01FD01031C612B0310F20CF10CF00C8E
:1006BC00F80C0130A0007708F302031C6B2B7E3082
:1006CC002007F3070318CB2B702B7E302007F30782
:1006DC00031CCE2B1830FA07FD0DFC0DF80DF00D98
:1006EC00F10DF20DA00D7408F0027508031C750FC6
:1006FC00F1027608031C760FF202760DA004201C82
:10070C00892B7D14942B7408F00775080318750F4A
:10071C00F10776080318760AF2077D10FA031F30EA
:10072C007A05031D722B7B1B7D1CBB2B0310F00D5C
:10073C00F10DF20DA00D7408F0027508031C750F75
:10074C00F1027608031C760FF202760D20040139B3
:10075C00FD070318FC0A0319F80A031DBB2BF80C40
:10076C00FC0CFD0CF30A0319CB2BFA1FF8137808B9
:10077C00F2007C08F1007D08F0000030D02B013035
:10078C001421D02B02305720D02B04306E20D02BCC
:08079C0008305E200000080097
:1007A40021005D08F4005E08F5007408F200750885
:1007B400F300F40A0319F50A5F08F0006008F10079
:1007C400DF0A0319E00A70088400710885007208C2
:1007D400860073088700000881007208840073088B
:1007E400850000080319F72BD72B5D08F0005E087D
:0407F400F100080008
:1007F80021002F105D08E100172121002F140800A7
:0A08080020008030F606742108007D
:1008120020007008F8007108F000F101F201F30104
:10082200FB01FC019630F300FA017008F100780830
:0A083200F000F801F2017A2008003E
:10083C0040302100E10017212100D1015108073C73
:10084C00031C352CEE30840087308500510884075A
:10085C000318850A0008DD00FC23D10A242C023081
:10086C00E100172121004F08DD005008DE00DF01F8
:04087C00202208002E
:10088000D8302100B0000630B100CF30B2000030C7
:10089000B30014302000EB000330EC00DD30ED003D
:1008A0000030EE0021008E128E110E1624009501EC
:0808B000403094009516080089
:1008B8002100DB01DC014F08D7005008D80051089F
:1008C800D9005208DA005A08FF3A031D752C590856
:1008D800FF3A031D752C5808FF3A031D752C57085D
:1008E800FF3A031D832C5308DD005408DE005930FD
:1008F800DF000030E000D2230330F000892E013001
:10090800D500D91F962C80305906F0007008D90000
:10091800D50A53088600540887002D308100D30A71
:100928000319D40A0030F0005A06031DA52C7008DC
:100938005906031DA52C70085806031DA52C570839
:10094800003A031DB22C5308DD005408DE00513074
:10095800DF000030E000D223F001892E5A08FF3A68
:10096800031DC02C5908003A031DC02C5808003A32
:10097800031DC02C5708003A031DCE2C5308DD0078
:100988005408DE004D30DF000030E000D223550867
:10099800F000892E0030F4000030F5000030F60039
:1009A8007F30F7005708F0005808F1005908F200A6
:1009B8005A08F300C522013003180030F00070080F
:1009C8000319032D21005708F0005808F1005908B1
:1009D800F2005A08F3000030F4000030F50020302F
:1009E800F6008230F700652270082100D7007108F0
:1009F800D8007208D9007308DA00DC03CE2C210075
:100A08000030F4000030F5002030F6008230F700A6
:100A18005708F0005808F1005908F2005A08F30086
:100A2800C5220130031C0030F00070080319392D6D
:100A380021005708F0005808F1005908F2005A0838
:100A4800F300CD30F400CC30F5004C30F6007B30AC
:100A5800F700652270082100D7007108D8007208D5
:100A6800D9007308DA00DC0A032D2100FF3057058E
:100A7800F800FF305805F9007F305905FA000030BA
:100A88005A05FB007808F4007908F5007A08F600A2
:100A98007B08F700F435F50DF60DF70D0030570516
:100AA800F00000305805F10000305905F200FF3021
:100AB8005A05F3007008D7007108D8007208D900E9
:100AC8007308DA0074085704F00075085804F10038
:100AD80076085904F20077085A04F3007008D70022
:100AE8007108D8007208D9007308DA007F305A02FA
:100AF800F0007008D6000130DA007008F4005708DA
:100B0800F0005808F1005908F2005A08F300740878
:100B18000319942DF035F10DF20DF30DFF3E8C2DD8
:100B28007008D7007108D8007208D9007308DA0075
:100B380053088600540887005A08303E8100D30ABB
:100B48000319D40A80305C06F0008030013A700244
:100B5800031CB72D8030063AF00080305C06700226
:100B6800031CB72DC22D53088600540887002E3069
:100B78008100D30A0319D40A0130DB000630D600FD
:100B88005608003A03191D2EDA015708F0005808D4
:100B9800F1005908F2005A08F300F035F10DF20D92
:100BA800F30DF035F10DF20DF30D5708F007580865
:100BB800F13D5908F23D5A08F33D7008D700710815
:100BC800D8007208D9007308DA005708F0005808EE
:100BD800F1005908F2005A08F300F035F10DF20D52
:100BE800F30D7008D7007108D8007208D90073088F
:100BF800DA0053088600540887005A08303E8100FE
:100C0800D30A0319D40A5B08003A031D1B2EDC0320
:100C18005C08003A031D1B2E530886005408870001
:100C28002E308100D30A0319D40A0130DB00D60321
:100C3800C42DFF3053078400FF30543D8500000861
:100C4800303A031D2C2E0130D3020030D43B1D2E28
:100C5800FF3053078400FF30543D850000082E3ACA
:100C6800031D3A2E0130D3020030D43B5C08003A11
:100C78000319832E530886005408870065308100C5
:100C8800D30A0319D40A80305C06F0008030003A99
:100C9800700203185B2E53088600540887002D3015
:100CA8008100D30A0319D40A5C08003CDC005C0804
:100CB800D6005C08093C0318712E0A30F400560867
:100CC800F000552221005308860054088700700858
:100CD800303E8100D30A0319D40A0A30F4005608BA
:100CE800F00055227808F0002100530886005408C7
:100CF80087007008303E8100D30A0319D40A5308CC
:0C0D08008600540887008101F0010800FB
:100D140021008C1210100C128C110C118C1020005C
:100D24008C1210108C100C118C110C120521052141
:100D340005218C150C168C1603218C1205218C169A
:100D440003218C1205218C1603218C1205210C120F
:100D54008C1603218C1205218C1603218C128C1104
:100D64008C148C1603218C1205218C100C168C16F5
:100D740003218C120C128C1603218C1205218C1663
:100D840003218C120C168C1603218C1205210C12D3
:100D94008C1603218C128C140C158C150C168C16C5
:0C0DA40003218C12052121002F140800EF
:100DB00021004F08240091001418DF2EDC2E1108AA
:040DC000F000080037
:100DC40021009D149D1CE72EE42E0430FC00E43029
:100DD400FD00FD0BEB2EFC0BEB2E00001C08F100BC
:100DE400F0011B08F0070030F13D092470082100D0
:100DF400BC007108BD007208BE007308BF0000305B
:100E0400F4000030F5007030F6008630F70004245A
:100E140070082100BC007108BD007208BE00730890
:100E2400BF000030F4000030F5001C30F6008230C2
:100E3400F7001E2370082100BC007108BD00720871
:080E4400BE007308BF000800A6
:100E4C002000FB01FC01FA0173080319522FFA135D
:100E5C00F2178630F302F31B362F0319362F542F5B
:100E6C00F309F30A08307302031C432FF300F20D4D
:100E7C00F2017308031D03104A2F730803194A2F3C
:100E8C000310F20CF30B462F7B1B721C522F031C0E
:100E9C00522FF20A0319592FF1015C2F7B14FB1FFF
:100EAC005F2FF1015F2F0130FC00612F0030FC003F
:100EBC00612FFF30FC00FC080319652F1322720808
:040ECC00F00008002A
:100ED000792F80302100CF008B2FC030CF008B2F97
:100EE0009430CF008B2FD430CF008B2F8030CF00A9
:100EF0008B2F21004F08013A0319692F4F08023A3E
:100F000003196D2F4F08033A0319702F4F08043A45
:100F10000319732F762F5003F0004F08F007700865
:100F2000CF007008E100172121002F10D3015308D2
:100F3000510784000030523D850000080319AB2F93
:100F40005308510784000030523D85000008DD0041
:0A0F5000FC23D30A972F2F1408008A
:100F5A0020007008F800FB01FC019E30F300FA0142
:0E0F6A00F201F101F0010230FC00A9200800A4
:100F780020000D150E118E100F1110302100DD000C
:100F880014232100C00180304006F00080300A3A66
:100F980070020318D52F4108CF00D8262100C00AB7
:100FA800C72F20000F150330FC009730FD00FD0B04
:100FB800DB2FFC0BDB2F000000000D158E100E112F
:020FC80008001F
:100FCA0012001E00F003031DE52FF103031DE52F98
:020FDA0008000D
:1010000020008E100D110E110F110330FC009730CF
:10101000FD00FD0B0928FC0B092800000000223010
:101020002100DD0080311423883121005508DD00C6
:1010300080311423883121005608DD0080311423CB
:10104000883121005708DD008031142388312100C8
:101050005808DD0080311423883120000F15073037
:10106000FC007D30FD00FD0B3328FC0B33280F11F5
:101070000330FC009730FD00FD0B3C28FC0B3C28A6
:101080000000000020302100DD0080311423883171
:1010900021004F08DD0080311423883121005008E1
:1010A000DD0080311423883121005108DD008031BA
:1010B0001423883121005208DD0080311423883147
:1010C00021005308DD0080311423883121005408A9
:1010D000DD0080311423883120000F150330FC001F
:1010E0009730FD00FD0B7228FC0B722800000000F9
:1010F0008D1C7B2878280D158E140E152E08003AAD
:10110000031D83287E28AE010E158E100D150800D4
:1011100020006108013A031DCF284008013A031D51
:10112000CE28C0015D08F4005E08F5005F08F600F7
:101130006008F70021003C08F0003D08F1003E087F
:10114000F2003F08F3008031C522883101300318D6
:101150000030F00070080319B0280E140F14CE28C8
:1011600021003C08F4003D08F5003E08F6003F0869
:10117000F70020005D08F0005E08F1005F08F20053
:101180006008F3008031C522883101300318003037
:10119000F00070080319CE280E100F10D1280E1081
:0411A0000F10080024
:1011A40020008F1B022A0C14D701280017152000D9
:1011B4006108003A031DEE280130E1000130D3003C
:1011C40001302100CF000130D0002F30D100003099
:1011D400D20080316827883120006108013A031D5C
:1011E40004295308003A031D0429E10101302100B8
:1011F400CF000130D0002A30D1000030D20080313D
:10120400682788312000D3016108013A031D46296B
:101214005D08F4005E08F5005F08F6006008F7005A
:1012240021003C08F0003D08F1003E08F2003F08B0
:10123400F3008031C5228831013003180030F000FA
:101244007008031927290E140F1421003C08F40018
:101254003D08F5003E08F6003F08F70020005D0851
:10126400F0005E08F1005F08F2006008F3008031CE
:10127400C5228831013003180030F00070080319CA
:1012840045290E100F1048290E100F1021003C089C
:10129400F0003D08F1003E08F2003F08F300803101
:1012A4002627883170082100C1004108F0008031F0
:1012B400AD2788317008F4007108F5007208F60053
:1012C4007308F70021003C08F0003D08F1003E08D7
:1012D400F2003F08F3008031042488317008E600EE
:1012E4007108E7007208E8007308E9000030F400B0
:1012F4000030F5002030F6008230F700803165229E
:1013040088317008E6007108E7007208E800730885
:10131400E9005D08F0005E08F1005F08F200600873
:10132400F30080312627883170082100C00040086E
:10133400F0008031AD2788317008F4007108F500A1
:101344007208F6007308F7005D08F0005E08F1000B
:101354005F08F2006008F3008031042488317008CB
:10136400E2007108E3007208E4007308E50000304D
:10137400F4000030F5002030F6008230F7008031B0
:10138400652288317008E2007108E3007208E40005
:101394007308E500AE302100CF0020006108210071
:1013A400D0004008D1008031262788317008210000
:1013B400D2004108D30020006608F0006708F1005D
:1013C4006808F2006908F300803126278831700824
:1013D4002100D4009230D500C530D600A630D70005
:1013E400B030D80000200230FB000430FC00BA30DA
:1013F400FD00FD0BFB29FC0BFB29FB0BFB2900006B
:021404000800DE
:1014060020008F1A6F2B0C14D701280017150030F7
:10141600F4000030F5000030F6007E30F7002000C2
:101426005D08F0005E08F1005F08F2006008F30056
:101436008031042488317008DD007108DE007208EE
:10144600DF007308E0009A30F4009930F50021308F
:10145600F6008230F7008031C5228831013003184A
:101466000030F00070080319402A1930DD000430FE
:10147600DE002030DF008230E0006108013A031D03
:10148600802A5D08F4005E08F5005F08F600600833
:10149600F70021003C08F0003D08F1003E08F2008C
:1014A6003F08F3008031C52288310130031800302F
:1014B600F00070080319612A0E140F1421003C086D
:1014C600F4003D08F5003E08F6003F08F70020004E
:1014D6005D08F0005E08F1005F08F2006008F300A6
:1014E6008031C5228831013003180030F0007008C1
:1014F60003197F2A0E100F10822A0E100F102100DA
:101506003C08F0003D08F1003E08F2003F08F300F9
:1015160080312627883170082100C1004108F0007B
:101526008031AD2788317008F4007108F500720823
:10153600F6007308F70021003C08F0003D08F100B2
:101546003E08F2003F08F300803104248831700819
:10155600E6007108E7007208E8007308E900003049
:10156600F4000030F5002030F6008230F7008031BC
:10157600652288317008E6007108E7007208E80005
:101586007308E9005D08F0005E08F1005F08F200EC
:101596006008F30080312627883170082100C000DA
:1015A6004008F0008031AD2788317008F4007108DA
:1015B600F5007208F6007308F7005D08F0005E0893
:1015C600F1005F08F2006008F300803104248831DE
:1015D6007008E2007108E3007208E4007308E50091
:1015E6000030F4000030F5002030F6008230F700BD
:1015F6008031652288317008E2007108E3007208C4
:10160600E4007308E500AE302100CF002000610839
:101616002100D0004008D10080312627883170088B
:101626002100D2004108D30020006608F0006708B8
:10163600F1006808F2006908F30080312627883136
:1016460070082100D4009230D500C530D600A630EF
:10165600D700B030D80000205D082100CF00200060
:101666005E082100D00020005F082100D100200084
:1016760060082100D200A030D3000030D4008031B1
:101686005C2488310230CF000B30D000A030D1006E
:101696000030D2008031682788310230CF000F3009
:1016A600D00080311E2488310230CF001030D000A7
:1016B6005430D1000030D2008031682788310230A2
:1016C600FB000430FC00BA30FD00FD0B682BFC0B60
:0A16D600682BFB0B682B00000800D6
:1016E00020004108013A031D532C8031E226883145
:1016F0003C08CF003D08D0003E08D1003F08D20092
:10170000A030D3000030D40080315C248831013017
:10171000CF000B30D000A030D1000030D20080319B
:10172000682788310130CF000F30D00080311E246F
:1017300088310130CF001030D0004430D10000306B
:10174000D2008031682788312000C10121003C0887
:10175000F0003D08F1003E08F2003F08F300803140
:101760002627883170082100C1004108F00080312F
:10177000AD2788317008F4007108F5007208F60092
:101780007308F70021003C08F0003D08F1003E0816
:10179000F2003F08F3008031042488317008E6002D
:1017A0007108E7007208E8007308E9000030F400EF
:1017B0000030F5002030F6008230F70080316522DD
:1017C00088317008E6007108E7007208E8007308C5
:1017D000E9005D08F0005E08F1005F08F2006008B3
:1017E000F30080312627883170082100C0004008AE
:1017F000F0008031AD2788317008F4007108F500E1
:101800007208F6007308F7005D08F0005E08F1004A
:101810005F08F2006008F30080310424883170080A
:10182000E2007108E3007208E4007308E50000308C
:10183000F4000030F5002030F6008230F7008031EF
:10184000652288317008E2007108E3007208E40044
:101850007308E500AE302100CF00200061082100B0
:10186000D0004008D100803126278831700821003F
:10187000D2004108D30020006608F0006708F1009C
:101880006808F2006908F300803126278831700863
:101890002100D4009230D500C530D600A630D70044
:0818A000B030D8000020080060
:1018A80020008E100D150E158D1D9D2C0D1C9D2CC8
:1018B8000F1124302100DD008031142388312100EC
:1018C8004008CF008031D826883170082000EA000F
:1018D80021004008CF008031D826883170082100C7
:1018E800B8004008CF008031D82688317008200021
:1018F800EF0021004008CF008031D82688317008D9
:101908002100B9004008CF008031D82688317008FE
:101918002100BB004008CF008031D82688317008EC
:101928002100BA0020000F150130D6008E100E15C8
:041938000D15080081
:10193C0020005608013A031D3E2ED6010C14D70187
:10194C0028001715210038082000E1006F08F0006E
:10195C008031AD2788317008DD007108DE00720817
:10196C00DF007308E00021003908F0008031AD275A
:10197C00883170082100B4007108B5007208B600F7
:10198C007308B7000030F4000030F5002030F6008A
:10199C008230F70080311E23883170082100B4009A
:1019AC007108B5007208B6007308B70020005D0816
:1019BC00F4005E08F5005F08F6006008F70080315F
:1019CC00742188316F30F4001230F5000330F600CA
:1019DC007530F7008031742188317008DD00710892
:1019EC00DE007208DF007308E0006108013A031D95
:1019FC003B2D5D08F4005E08F5005F08F6006008FA
:101A0C00F70021003C08F0003D08F1003E08F20010
:101A1C003F08F3008031C5228831013003180030B3
:101A2C00F000700803191C2D0E140F1421003C0833
:101A3C00F4003D08F5003E08F6003F08F7002000D2
:101A4C005D08F0005E08F1005F08F2006008F3002A
:101A5C008031C5228831013003180030F000700845
:101A6C0003193A2D0E100F103D2D0E100F1061089A
:101A7C00013A031D4D2D01302100CF000130D00063
:101A8C002F30D1000030D2008031682788312000FF
:101A9C006108003A031D5E2D01302100CF0001309A
:101AAC00D0002A30D1000030D20080316827883134
:101ABC0020005D082100CF0020005E082100D0002E
:101ACC0020005F082100D100200060082100D20016
:101ADC00A030D3000030D40080315C248831023037
:101AEC00CF000B30D000A030D1000030D2008031BC
:101AFC00682788310230CF000F30D00080311E248F
:101B0C0088310230CF001030D0003E30D100003090
:101B1C00D2008031682788313C08F0003D08F10084
:101B2C003E08F2003F08F300803126278831700808
:101B3C002100C1004108F0008031AD2788317008C8
:101B4C00F4007108F5007208F6007308F700210024
:101B5C003C08F0003D08F1003E08F2003F08F3009D
:101B6C008031042488317008E6007108E70072089F
:101B7C00E8007308E9000030F4000030F500203074
:101B8C00F6008230F7008031652288317008E6005B
:101B9C007108E7007208E8007308E9005D08F000BE
:101BAC005E08F1005F08F2006008F3008031262720
:101BBC00883170082100C0004008F0008031AD274A
:101BCC0088317008F4007108F5007208F60073088B
:101BDC00F7005D08F0005E08F1005F08F200600895
:101BEC00F3008031042488317008E2007108E300AE
:101BFC007208E4007308E5000030F4000030F500D2
:101C0C002030F6008230F700803165228831700870
:101C1C00E2007108E3007208E4007308E500AE30DE
:101C2C002100CF00200061082100D0004008D10025
:101C3C0080312627883170082100D2004108D3005A
:101C4C0020006608F0006708F1006808F2006908D7
:101C5C00F30080312627883170082100D40092309F
:101C6C00D500C530D600A630D700B030D800002043
:021C7C0008005E
:101C7E0021000F108F100E100C108D160D168F17D1
:101C8E000F178F168E100E110D110F110D148D15BD
:101C9E008D1423008C018D018F0190010D162100F2
:101CAE00951324008D160D128D118D100D108B179E
:101CBE008B150B1027009516961215141610220070
:101CCE0097171717971117119714171021001D1535
:101CDE009D151D129D161D139D101D149E171E126F
:101CEE009E121E131E119E141E140B17911420000B
:101CFE0091101C179C161C169C151C159C141C1060
:101D0E00FF309B002100931420009310280017171A
:101D1E00971617169715171197141710FF30960070
:101D2E00210093152000931128001E179E161E16D3
:101D3E009E151E159E141E10FF309D0080318A26A2
:101D4E0088310D30FC00FB30FD00FD0BAC2EFC0B82
:101D5E00AC2E000000000130E100803117218831E7
:101D6E000C302100E1008031172188318031402470
:101D7E0088318230FC00DD30FD00FD0BC42EFC0BE3
:101D8E00C42E0000000020000E100C140F1406309C
:101D9E00FB001330FC00AD30FD00FD0BD42EFC0B10
:101DAE00D42EFB0BD42E000000000C100F100800D8
:101DBE0020006108013A031DF02E01302100CF00F2
:101DCE000130D0002F30D1000030D2008031682792
:101DDE00883120006108003A031D012F01302100D7
:101DEE00CF000130D0002A30D1000030D200803137
:101DFE006827883121000130CF000630D000223014
:101E0E00D1000030D2008031682788318031E2263F
:101E1E0088313C08CF003D08D0003E08D1003F0875
:101E2E00D200A030D3000030D40080315C24883141
:101E3E000130CF000B30D000A030D1000030D200E6
:101E4E008031682788310130CF000F30D0008031CB
:101E5E001E2488310130CF001030D0002830D10040
:101E6E000030D2008031682788310230CF00013037
:101E7E00D0003330D1000030D20080316827883155
:101E8E0020005D082100CF0020005E082100D00058
:101E9E0020005F082100D100200060082100D20040
:101EAE00A030D3000030D40080315C248831023061
:101EBE00CF000B30D000A030D1000030D2008031E6
:101ECE00682788310230CF000F30D00080311E24B9
:101EDE0088310230CF001030D0004230D1000030B7
:0A1EEE00D200803168278831080017
:101EF80020000D150E118E107B302100C5002C30EE
:101F0800C6004430C7000630C8000630C900400883
:101F1800CA004108CB004208CC004308CD00DB30A2
:101F2800CE0020000F112100DD01803114238831FB
:101F38002100C40180304406F00080300A3A700263
:101F48000318B82FC5308400003085004408840782
:101F58000030C41BFF30853D0008DD0080311423AC
:101F680088312100C40A9E2F20000F150330FC0081
:101F78009730FD00FD0BBE2FFC0BBE2F00000000AC
:081F88008E100D150E1108006A
:101F9000EA273F268031BC2788313A302100C00033
:101FA0008430C100B330C200E630C3007C27DF2696
:101FB0008031E22688319031002088310322D220FE
:0C1FC0008820702354249E24D82FE52F85
:101FD40077308400913085004030F0000130F1000A
:101FE40022308600003087008031E52788310800E0
:1020000020000F1B76290C14D7012800171520007B
:102010005D08F0005E08F1005F08F2006008F30060
:102020000030F4000030F5000030F6007E30F7009C
:102030008031742190317008DD007108DE00720873
:10204000DF007308E0007008F4007108F500720802
:10205000F6007308F700CD30F000CC30F10070309E
:10206000F2008330F3008031C52290310130031833
:102070000030F0007008031945280C30DD000230F4
:10208000DE007030DF008330E0006108013A031D9C
:1020900085285D08F4005E08F5005F08F60060081A
:1020A000F70021003C08F0003D08F1003E08F20076
:1020B0003F08F3008031C522903101300318003011
:1020C000F0007008031966280E140F1421003C0854
:1020D000F4003D08F5003E08F6003F08F700200038
:1020E0005D08F0005E08F1005F08F2006008F30090
:1020F0008031C5229031013003180030F0007008A3
:10210000031984280E100F1087280E100F102100BD
:102110003C08F0003D08F1003E08F2003F08F300E3
:1021200080312627903170082100C1004108F0005D
:102130008031AD2790317008F4007108F500720805
:10214000F6007308F70021003C08F0003D08F1009C
:102150003E08F2003F08F3008031042490317008FB
:10216000E6007108E7007208E8007308E900003033
:10217000F4000030F5002030F6008230F7008031A6
:10218000652290317008E6007108E7007208E800E7
:102190007308E9005D08F0005E08F1005F08F200D6
:1021A0006008F30080312627903170082100C000BC
:1021B0004008F0008031AD2790317008F4007108BC
:1021C000F5007208F6007308F7005D08F0005E087D
:1021D000F1005F08F2006008F300803104249031C0
:1021E0007008E2007108E3007208E4007308E5007B
:1021F0000030F4000030F5002030F6008230F700A7
:102200008031652290317008E2007108E3007208A5
:10221000E4007308E500AE302100CF002000610823
:102220002100D0004008D10080312627903170086D
:102230002100D2004108D30020006608F0006708A2
:10224000F1006808F2006908F30080312627903118
:1022500070082100D4009230D500C530D600A630D9
:10226000D700B030D8008831002090315D082100BF
:10227000CF0020005E082100D00020005F08210070
:10228000D100200060082100D200A030D30000302F
:10229000D40080315C2490310230CF000B30D0006C
:1022A000A030D1000030D200803168279031023058
:1022B000CF000F30D00080311E2490310230CF008B
:1022C0001030D0004630D1000030D2008031682775
:1022D00090310230FB000430FC00BA30FD00FD0BF1
:0E22E0006F29FC0B6F29FB0B6F290000080013
:100FDC000634093409340634003400340034003447
:0C22EE00543465346D3470343A340034DC
:0422FA004334003435
:0822FE004F344634463400342D
:022306000034A1
:082308004F344E342034003440
:1023100055347334653472342034543465346D3438
:0623200070343A34003471
:042326004334003408
:02232A0001347C
:02232C0000347B
:04232E004334003400
:0423320043340034FC
:0423360043340034F8
:04233A000034003437
:02233E00003469
:042340000034003431
:0823440049344E3446340034E4
:04234C0030340034F5
:02235000003457
:0423520043340034DC
:02235600003451
:0223580000344F
:02235A0000344D
:08235C004E3461344E340034AC
:082364000C34023420348334F0
:02236C0001343A
:020000040001F9
:04000E00A23F3316C4
:00000001FF
