:02000000AF2E21
:1000080070082000A1007D08A0008A018301911FCB
:1000180011280130B800181091130B1D14280B116A
:100028002700161E2328E930FD00FD0B19282000A3
:100038000C10BD01BE012700161220009A012000F5
:10004800911C3A28BD0A0319BE0A80303E06F0000A
:10005800803036067002031D332835083D02031C24
:1000680038280C14BD01BE0191109A01931C4C282C
:10007800BB0A0319BC0A3C08003C031D45283B0881
:100088000A3C03184B280130A500BB01BC019310A2
:0A0098002108F0002008FD00090017
:1000A20020006E08240091001418582855281108C1
:0400B200F000080052
:1000B6002000FB01FA01F9018030F800F10CF00C88
:1000C600031C6E287408F90775080318750FFA07DC
:1000D6000318FB0A0310F01F76287408FA07750840
:1000E6000318750FFB07FB0CFA0CF90CF80C031C34
:1000F60061287B08F3007A08F2007908F100780895
:04010600F0000800FD
:10010A002000F801F9011030FC00710DF80DF90D0D
:10011A007408F8027508031C750FF90203189C2865
:10012A007408F80775080318750FF9070310F00D1E
:08013A00F10DFC0B8A280800FE
:10014200BC302000D6000030D7006D30D80000301F
:10015200D9005130DA000030DB006E30DC000030B4
:10016200DD0021008E128E110E1624009501403002
:0601720094009516080040
:1001780020006D08240091001418C328C028110815
:04018800F00008007B
:10018C0020002230FC00F801F901FA01FB01FC030C
:10019C000319FB280310FB0CFA0CF90CF80CF30CEC
:1001AC00F20CF10CF00C031CCD28FC030319ED2808
:1001BC007408F80775080318750FF9077608031803
:1001CC00760FFA0777080318770FFB07D128740806
:1001DC00F80775080318750FF90776080318760FDA
:0C01EC00FA0777080318770FFB070800DC
:1001F80020008E130D100E130E110330FC009730E3
:10020800FD00FD0B0529FC0B05290000000022302C
:10021800EE005120210026082000EE005120210088
:1002280027082000EE005120210028082000EE00B9
:100238005120210029082000EE0051200330FC0045
:100248009730FD00FD0B2629FC0B26290000000035
:1002580020000E150E110330FC009730FD00FD0B39
:100268003329FC0B3329000000002030EE00512018
:10027800210020082000EE00512021002108200044
:10028800EE005120210022082000EE00512021001C
:1002980023082000EE005120210024082000EE0051
:1002A8005120210025082000EE0051200330FC00D9
:1002B8009730FD00FD0B5E29FC0B5E290000000055
:1002C80020000E158D1C692966290D148E170E172E
:0E02D8000D196F296C298E130D140E170800D6
:1002E60023009E1878290000732920006D0823003A
:0402F6009A00080062
:1002FA0020002508013A031DD42A043021009D005C
:10030A009E101E109D101D140230FC004B30FD0083
:10031A00FD0B8D29FC0B8D299D149D1C9529922975
:10032A000230FC004B30FD00FD0B9929FC0B99298A
:10033A001C08F100F0011B08F0070030F13D7008BD
:10034A002000A6007108A7001E30F4000030F50056
:10035A005B20FF30F4000330F50085207008AB0005
:10036A004D308600003087003F0886070030BF1BEB
:10037A00FF30873D7008810021001D109D1002305A
:10038A00FC004B30FD00FD0BC829FC0BC8290730C7
:10039A00FC007D30FD00FD0BD029FC0BD0299E14FA
:1003AA001E1408309D009D101D140730FC007D307E
:1003BA00FD00FD0BDE29FC0BDE299D149D1CE629A0
:1003CA00E3290730FC007D30FD00FD0BEA29FC0B18
:1003DA00EA291C08F100F0011B08F0070030F13D82
:1003EA0070082000A6007108A7009630F0020030BD
:1003FA00F13B7008A6007108A7000930F40000302C
:10040A00F50085207008B4000930F4000030F500CA
:10041A002608F0002708F10085207808F0007908FE
:10042A00F1007008B30021001D109D102000BF0AC2
:10043A008030073AF00080303F0670020318D32A52
:10044A00D50180305506F0008030083A7002031852
:10045A00922ABA015508073CF100F2010030D51B77
:10046A00FF30F23B8030F000803072067002031DCC
:10047A00402A71083A020318902A4D30840000304D
:10048A0085003A0884070318850A0008F2003A082A
:10049A00013EF000F1010030F13D4D30700784005B
:1004AA000030713D850080300006F0008030720611
:1004BA00700203188E2A4D30F2000030F3003A0819
:1004CA00F2070318F30A720884007308850000080B
:1004DA00D4003A08013EF000F1010030F13D4D3000
:1004EA00700784000030713D850072088600730829
:1004FA008700000881003A08013EF000F10100304F
:10050A00F13D4D30700786000030713D8700540878
:10051A008100BA0A2F2AD50A262A51085007F30061
:10052A000030D01BFF30F4000030D11BFF30F43D07
:10053A007308F0007408F100F137F00C7008B90084
:10054A0070081E3CF0007008B900BF302100A000FE
:10055A00200028082100A100200035082100A2005F
:10056A00200034082100A300200033082100A40041
:10057A007008A5009230A600C530A700A630A800D2
:10058A00B030A900FC200330FC009730FD00FD0BC1
:10059A00CC2AFC0BCC2A00000000BF01A5010800F0
:1005AA0020003808013A031D022C21009113200073
:1005BA0018108B12B001B101AE01AF011708B000DB
:1005CA00B1011608AE00AF011708C4001608C3002F
:1005DA003008B100B0012E08B0042F08B1041F087A
:1005EA00053A031D712B4508F0004608F10047083B
:1005FA00F2004808F3000F30F400F501F601F701A4
:10060A00C62030087007F5003108713DF600003049
:10061A00723DF7000030733DF8000430F4007508AD
:10062A00F0007608F1007708F2007808F300740801
:10063A000319252BF337F20CF10CF00CFF3E1D2B9E
:10064A007008C5007108C6007208C7007308C800A0
:10065A007008F4007108F5007208F6007308F700D4
:10066A00F430F4020130F53B0030F63BF73B8030C2
:10067A00F000803077067002031D4D2B7608003C8F
:10068A00031D4D2B75083102031D4D2B74083002D2
:10069A000318712BC10AC10A8030033AF000803076
:1006AA00410670020318672B0130B2008230FC0049
:1006BA00DD30FD00FD0B5F2BFC0B5F2B0000000003
:1006CA00C101682BC10380304106F0008030003A36
:1006DA0070020318712BC1011F08063A031DEE2B85
:1006EA004908F0004A08F1004B08F2004C08F300F0
:1006FA000F30F400F501F601F701C6203008700743
:10070A00F5003108713DF6000030723DF700003007
:10071A00733DF8000430F4007508F0007608F10023
:10072A007708F2007808F30074080319A22BF3374C
:10073A00F20CF10CF00CFF3E9A2B7008C9007108FC
:10074A00CA007208CB007308CC007008F400710864
:10075A00F5007208F6007308F700F430F40201306D
:10076A00F53B0030F63BF73B8030F00080307706EF
:10077A007002031DCA2B7608003C031DCA2B75089C
:10078A003102031DCA2B740830020318EE2BC20A69
:10079A00C20A8030033AF000803042067002031821
:1007AA00E42B0230B2008230FC00DD30FD00FD0B8C
:1007BA00DC2BFC0BDC2B00000000C201E52BC20382
:1007CA0080304206F0008030003A70020318EE2BA7
:1007DA00C201B70A3708073A031DF52B0530B700DF
:1007EA0037089F009701960191130B1195018B16FB
:0C07FA002100911720001814B80108001D
:1008060020000D1D972C0230FC004B30FD00FD0B27
:100816000A2CFC0B0A2C0E110330FC009730FD004D
:10082600FD0B132CFC0B132C000000002430EE00F3
:10083600512020004008ED00BC2070082000AD00CB
:100846004008ED00BC2070082000AC004008ED0018
:10085600BC2070082000AA004008ED00BC207008EB
:100866002000A4004008ED00BC2070082000A30072
:100876004008ED00BC2070082000A2000330FC00F8
:100886009730FD00FD0B452CFC0B452C00000000AD
:100896000E152C08023A031D5B2CA801A9012100A4
:1008A600911020001C112700141220000C10AC011E
:1008B6002C08013A031D702C0130A8000030A90055
:1008C6009A0127001612200091102100911427008A
:1008D600141620001C150C14AC0109302A0203184A
:1008E600772C2A08B500B601BF302100A0002000F1
:1008F60028082100A100200035082100A2002000C0
:1009060034082100A300200033082100A4002000A1
:1009160039082100A5009230A600C530A700A630F0
:0A092600A800B030A900FC20080072
:10093000003020002906031D9F2C01302806031DCE
:10094000412D3208023A031DEB2CB50A0319B60AF1
:1009500000303606031DAE2C01303506031DB42CC5
:100960000430B5000030B6008030F000803036062C
:100970007002031DBD2C3508083C0318C12CB501BD
:10098000B6018230FC00DD30FD00FD0BC52CFC0BF8
:10099000C52C00000000BF302100A0002000280866
:1009A0002100A100200035082100A2002000340809
:1009B0002100A300200033082100A40020003908F2
:1009C0002100A5009230A600C530A700A630A800DF
:1009D000B030A900FC203208033A031D362D013047
:1009E000B5020030B63B00303606031DF92C04304A
:1009F0003506031DFD2CB501B60180303606F0002A
:100A000080307002031D062D0030350203180C2DB6
:100A10000830B5000030B6008230FC00DD30FD004B
:100A2000FD0B102DFC0B102D00000000BF3021002D
:100A3000A000200028082100A10020003508210086
:100A4000A200200034082100A30020003308210068
:100A5000A400200039082100A5009230A600C5306E
:100A6000A700A630A800B030A900FC208230FC000E
:100A7000DD30FD00FD0B3A2DFC0B3A2D000000008F
:040A8000B2010800B7
:100A840020003208013A031DA32D2808290401304F
:100A9400031D0030A800A9000030A9000030290679
:100AA400031D562D00302806031D602D21009110D2
:100AB40020001C112700141220000C1000302906FD
:100AC400031D662D01302806031D742D9A0127008D
:100AD40016122000911021009114270014162000F2
:100AE4001C150C14BF302100A00020002808210090
:100AF400A100200035082100A200200034082100B4
:100B0400A300200033082100A4002000390821009C
:100B1400A5009230A600C530A700A630A800B030CA
:100B2400A900FC200330FB008A30FC005530FD0096
:100B3400FD0B9A2DFC0B9A2DFB0B9A2D0000000047
:040B4400B2010800F2
:100B480012001E00F003031DA42DF103031DA42DA4
:020B5800080093
:100B5A0020000D140E138E130730FC007D30FD00AB
:100B6A00FD0BB52DFC0BB52D0330FC009730FD00B5
:100B7A00FD0BBD2DFC0BBD2D000000007B30E300FA
:100B8A000C30E4004430E5000630E6000630E700A9
:100B9A005E08E8005F08E9006008EA006108EB0007
:100BAA00DB30EC000330FC009730FD00FD0BDB2D41
:100BBA00FC0BDB2D000000000E110330FC00973007
:100BCA00FD00FD0BE62DFC0BE62D00000000EE01FA
:100BDA0051202000E20180306206F00080300A3A9B
:100BEA0070020318082E6330840000308500620802
:100BFA0084070030E21BFF30853D0008EE005120DB
:100C0A002000E20AF02D0E150330FC009730FD009B
:100C1A00FD0B0D2EFC0B0D2E000000008E130D1483
:040C2A000E17080099
:100C2E0023008C018D018C140C168C160C158D0165
:100C3E0021008E130E130D100E110D158D158D1422
:100C4E000D168E100C108D160C168C168C140C1591
:100C5E0020008C018D018E01220091139313200030
:100C6E001E139E151E1505309F002200181498178E
:100C7E009717971517119714171020009E1721001C
:100C8E009E171E139E121E121E119E101E108B17E3
:100C9E008B160B1791138B159110931427001412AA
:100CAE00210095129511151595141510C5302000BB
:100CBE009800A1309900FF309B0001309C001C1160
:100CCE009A01FF30280096007F309700950127008B
:100CDE0016120B1120009701960191109A01A12076
:100CEE000730FC007D30FD00FD0B7B2EFC0B7B2EB8
:0A0CFE0020008C018D018E0108001A
:100D080020000D140E138E130E110330FC009730C3
:100D1800FD00FD0B8D2EFC0B8D2E00000000103009
:100D2800EE0051202000DE0180305E06F0008030A9
:100D38000A3A70020318AA2E5F08ED00BC2070085A
:100D48002000ED0073212000DE0A982E0E158E1368
:060D58000D140E17080047
:100D5E002E27172684269830DE00D530DF001A3075
:100D6E00E000FA30E100AD2584268E140630FB003B
:100D7E001330FC00AD30FD00FD0BC32EFC0BC32E5B
:100D8E00FB0BC32E000000008E100630FB0013304C
:100D9E00FC00AD30FD00FD0BD22EFC0BD22EFB0B5A
:100DAE00D22E000000000C140630FB001330FC00A5
:100DBE00AD30FD00FD0BE12EFC0BE12EFB0BE12E09
:100DCE00000000000C104030C5001F30C600C701E7
:100DDE00C8014030C9001F30CA00CB01CC011A3007
:100DEE00FB005E30FC006E30FD00FD0BFC2EFC0B9C
:100DFE00FC2EFB0BFC2E0000FF3097000324D522A7
:0C0E0E00422598247D21B201052F0C2FF5
:100E5C0010308400873085001E30F0000130F10026
:0C0E6C002230860000308700A42508001A
:020E200000349C
:020E220000349A
:020E2400003498
:020E2600003496
:040E2800003400345E
:040E2C00003400345A
:020E300000348C
:020E320000348A
:020E3400003488
:020E3600003486
:040E3800003400344E
:040E3C0040349C346E
:020E400000347C
:020E420000347A
:020E4400003478
:040E46000034003440
:020E4A0005346D
:020E4C00003470
:020E4E0000346E
:020E500000346C
:040E52000034003434
:040E56000034003430
:020E5A00003462
:020000040001F9
:04000E00E23F331684
:00000001FF
