:02000000B9291C
:1000080070082000A0008A0183012700961E11288D
:1000180001302000A50027009612161E1A2801306C
:100028002000A3000130A20027001612961C2728E2
:100038002000A40A2408063A031D2528A40101303B
:0E004800A1002700961020002008F0000900FB
:100056002000470824009100141832282F28110880
:04006600F00008009E
:10006A0020000D118E138D110E110330FC009730F4
:10007A00FD00FD0B3E28FC0B3E280000000022304C
:10008A00C7002B2020004308C7002B20200044086B
:10009A00C7002B2020004508C7002B202000460857
:1000AA00C7002B2020000E150730FC007D30FD0014
:1000BA00FD0B5D28FC0B5D280E110330FC00973008
:1000CA00FD00FD0B6628FC0B6628000000002030AE
:1000DA00C7002B2020003D08C7002B2020003E0827
:1000EA00C7002B2020003F08C7002B202000400813
:1000FA00C7002B2020004108C7002B2020004208FF
:10010A00C7002B2020000E150330FC009730FD009D
:10011A00FD0B8D28FC0B8D28000000000E1F962871
:10012A0093288E170D158D152108003A031D9E2858
:10013A0099282108013A031DA628A1018D110D1144
:04014A008E13080008
:10014E00C2302000A6000030A7003D30A8000030CD
:10015E00A9002B30AA000030AB004730AC000030B5
:10016E00AD0021008E128E110E1624009501403026
:06017E0094009516080034
:1001840020003D08240091001418C928C62811082D
:04019400F00008006F
:1001980021000C100C110D168D168E140D118D11D9
:1001A8008E130E118D140D140E1723008C018D0162
:1001B8002100951324008D160D128D100D108B172C
:1001C8000B178B150B10270095169612141616127E
:1001D800951496102100971617129711171197105A
:1001E800A7208230FC00DD30FD00FD0BF928FC0B58
:1001F800F9280000000020000C140C150630FB0044
:100208001330FC00AD30FD00FD0B0829FC0B08295C
:0E021800FB0B0829000000000C100C11080060
:1002260020008E178D110D110E111030C7002B20D6
:100236002000AE0180302E06F00080300A3A7002AF
:1002460003182B292F08BD00C2202000AE0A1D2945
:100256000E150330FC009730FD00FD0B3029FC0B1A
:0E0266003029000000008E170D118D110800C8
:1002740020002308013A031D54290D1E54297E3001
:10028400BD00B530BE009A30BF00C001C101C2013B
:100294009230C300C530C400A630C500B030C600DB
:0602A4003520A301080053
:1002AA0020002208031D6A297E30BD00B530BE0039
:1002BA00BF01C001C101C2019230C300C530C400F0
:0E02CA00A630C500B030C6003520A2010800E5
:1002D80020008E178D110D117B30B3002C30B40027
:1002E8004430B5000130B6000630B7002E08B8001B
:1002F8002F08B9003008BA003108BB00DB30BC0059
:100308000E11C7012B202000B20180303206F00008
:1003180080300A3A70020318A12933308400003073
:100328008500320884070030B21BFF30853D000885
:10033800C7002B202000B20A89290E150330FC00C3
:100348009730FD00FD0BA629FC0BA6290000000034
:080358000D118E138D11080038
:1003600012001E00F003031DB029F103031DB02984
:02037000080083
:100372002000A101A201A301A401A501CC20132107
:100382004C30AE003A30AF008530B000E930B100F9
:0C0392006C2155213A216300CA29CE29B4
:020000040001F9
:04000E00BA273316C4
:00000001FF
